{
  "contractName": "NFT",
  "abi": [
    {
      "inputs": [],
      "stateMutability": "nonpayable",
      "type": "constructor"
    },
    {
      "anonymous": false,
      "inputs": [
        {
          "indexed": true,
          "internalType": "address",
          "name": "owner",
          "type": "address"
        },
        {
          "indexed": true,
          "internalType": "address",
          "name": "approved",
          "type": "address"
        },
        {
          "indexed": true,
          "internalType": "uint256",
          "name": "tokenId",
          "type": "uint256"
        }
      ],
      "name": "Approval",
      "type": "event"
    },
    {
      "anonymous": false,
      "inputs": [
        {
          "indexed": true,
          "internalType": "address",
          "name": "owner",
          "type": "address"
        },
        {
          "indexed": true,
          "internalType": "address",
          "name": "operator",
          "type": "address"
        },
        {
          "indexed": false,
          "internalType": "bool",
          "name": "approved",
          "type": "bool"
        }
      ],
      "name": "ApprovalForAll",
      "type": "event"
    },
    {
      "anonymous": false,
      "inputs": [
        {
          "indexed": true,
          "internalType": "address",
          "name": "from",
          "type": "address"
        },
        {
          "indexed": true,
          "internalType": "address",
          "name": "to",
          "type": "address"
        },
        {
          "indexed": true,
          "internalType": "uint256",
          "name": "tokenId",
          "type": "uint256"
        }
      ],
      "name": "Transfer",
      "type": "event"
    },
    {
      "inputs": [],
      "name": "admin",
      "outputs": [
        {
          "internalType": "address",
          "name": "",
          "type": "address"
        }
      ],
      "stateMutability": "view",
      "type": "function",
      "constant": true
    },
    {
      "inputs": [
        {
          "internalType": "address",
          "name": "to",
          "type": "address"
        },
        {
          "internalType": "uint256",
          "name": "tokenId",
          "type": "uint256"
        }
      ],
      "name": "approve",
      "outputs": [],
      "stateMutability": "nonpayable",
      "type": "function"
    },
    {
      "inputs": [
        {
          "internalType": "address",
          "name": "owner",
          "type": "address"
        }
      ],
      "name": "balanceOf",
      "outputs": [
        {
          "internalType": "uint256",
          "name": "",
          "type": "uint256"
        }
      ],
      "stateMutability": "view",
      "type": "function",
      "constant": true
    },
    {
      "inputs": [
        {
          "internalType": "uint256",
          "name": "tokenId",
          "type": "uint256"
        }
      ],
      "name": "getApproved",
      "outputs": [
        {
          "internalType": "address",
          "name": "",
          "type": "address"
        }
      ],
      "stateMutability": "view",
      "type": "function",
      "constant": true
    },
    {
      "inputs": [
        {
          "internalType": "address",
          "name": "owner",
          "type": "address"
        },
        {
          "internalType": "address",
          "name": "operator",
          "type": "address"
        }
      ],
      "name": "isApprovedForAll",
      "outputs": [
        {
          "internalType": "bool",
          "name": "",
          "type": "bool"
        }
      ],
      "stateMutability": "view",
      "type": "function",
      "constant": true
    },
    {
      "inputs": [],
      "name": "name",
      "outputs": [
        {
          "internalType": "string",
          "name": "",
          "type": "string"
        }
      ],
      "stateMutability": "view",
      "type": "function",
      "constant": true
    },
    {
      "inputs": [],
      "name": "nextTokenId",
      "outputs": [
        {
          "internalType": "uint256",
          "name": "",
          "type": "uint256"
        }
      ],
      "stateMutability": "view",
      "type": "function",
      "constant": true
    },
    {
      "inputs": [
        {
          "internalType": "uint256",
          "name": "tokenId",
          "type": "uint256"
        }
      ],
      "name": "ownerOf",
      "outputs": [
        {
          "internalType": "address",
          "name": "",
          "type": "address"
        }
      ],
      "stateMutability": "view",
      "type": "function",
      "constant": true
    },
    {
      "inputs": [
        {
          "internalType": "address",
          "name": "from",
          "type": "address"
        },
        {
          "internalType": "address",
          "name": "to",
          "type": "address"
        },
        {
          "internalType": "uint256",
          "name": "tokenId",
          "type": "uint256"
        }
      ],
      "name": "safeTransferFrom",
      "outputs": [],
      "stateMutability": "nonpayable",
      "type": "function"
    },
    {
      "inputs": [
        {
          "internalType": "address",
          "name": "from",
          "type": "address"
        },
        {
          "internalType": "address",
          "name": "to",
          "type": "address"
        },
        {
          "internalType": "uint256",
          "name": "tokenId",
          "type": "uint256"
        },
        {
          "internalType": "bytes",
          "name": "data",
          "type": "bytes"
        }
      ],
      "name": "safeTransferFrom",
      "outputs": [],
      "stateMutability": "nonpayable",
      "type": "function"
    },
    {
      "inputs": [
        {
          "internalType": "address",
          "name": "operator",
          "type": "address"
        },
        {
          "internalType": "bool",
          "name": "approved",
          "type": "bool"
        }
      ],
      "name": "setApprovalForAll",
      "outputs": [],
      "stateMutability": "nonpayable",
      "type": "function"
    },
    {
      "inputs": [
        {
          "internalType": "bytes4",
          "name": "interfaceId",
          "type": "bytes4"
        }
      ],
      "name": "supportsInterface",
      "outputs": [
        {
          "internalType": "bool",
          "name": "",
          "type": "bool"
        }
      ],
      "stateMutability": "view",
      "type": "function",
      "constant": true
    },
    {
      "inputs": [],
      "name": "symbol",
      "outputs": [
        {
          "internalType": "string",
          "name": "",
          "type": "string"
        }
      ],
      "stateMutability": "view",
      "type": "function",
      "constant": true
    },
    {
      "inputs": [
        {
          "internalType": "uint256",
          "name": "tokenId",
          "type": "uint256"
        }
      ],
      "name": "tokenURI",
      "outputs": [
        {
          "internalType": "string",
          "name": "",
          "type": "string"
        }
      ],
      "stateMutability": "view",
      "type": "function",
      "constant": true
    },
    {
      "inputs": [
        {
          "internalType": "address",
          "name": "from",
          "type": "address"
        },
        {
          "internalType": "address",
          "name": "to",
          "type": "address"
        },
        {
          "internalType": "uint256",
          "name": "tokenId",
          "type": "uint256"
        }
      ],
      "name": "transferFrom",
      "outputs": [],
      "stateMutability": "nonpayable",
      "type": "function"
    },
    {
      "inputs": [
        {
          "internalType": "address",
          "name": "to",
          "type": "address"
        }
      ],
      "name": "mint",
      "outputs": [],
      "stateMutability": "nonpayable",
      "type": "function"
    }
  ],
  "bytecode": "0x60806040523480156200001157600080fd5b506040518060400160405280600781526020017f4d79204e465429000000000000000000000000000000000000000000000000008152506040518060400160405280600381526020017f4e46540000000000000000000000000000000000000000000000000000000000815250816000908051906020019062000096929190620000f9565b508060019080519060200190620000af929190620000f9565b50505033600760006101000a81548173ffffffffffffffffffffffffffffffffffffffff021916908373ffffffffffffffffffffffffffffffffffffffff1602179055506200020e565b8280546200010790620001a9565b90600052602060002090601f0160209004810192826200012b576000855562000177565b82601f106200014657805160ff191683800117855562000177565b8280016001018555821562000177579182015b828111156200017657825182559160200191906001019062000159565b5b5090506200018691906200018a565b5090565b5b80821115620001a55760008160009055506001016200018b565b5090565b60006002820490506001821680620001c257607f821691505b60208210811415620001d957620001d8620001df565b5b50919050565b7f4e487b7100000000000000000000000000000000000000000000000000000000600052602260045260246000fd5b6125ab806200021e6000396000f3fe608060405234801561001057600080fd5b50600436106101005760003560e01c806370a0823111610097578063b88d4fde11610066578063b88d4fde146102ab578063c87b56dd146102c7578063e985e9c5146102f7578063f851a4401461032757610100565b806370a082311461022357806375794a3c1461025357806395d89b4114610271578063a22cb4651461028f57610100565b806323b872dd116100d357806323b872dd1461019f57806342842e0e146101bb5780636352211e146101d75780636a6278421461020757610100565b806301ffc9a71461010557806306fdde0314610135578063081812fc14610153578063095ea7b314610183575b600080fd5b61011f600480360381019061011a919061195d565b610345565b60405161012c9190611cb4565b60405180910390f35b61013d610427565b60405161014a9190611ccf565b60405180910390f35b61016d600480360381019061016891906119af565b6104b9565b60405161017a9190611c4d565b60405180910390f35b61019d60048036038101906101989190611921565b6104ff565b005b6101b960048036038101906101b4919061181b565b610617565b005b6101d560048036038101906101d0919061181b565b610677565b005b6101f160048036038101906101ec91906119af565b610697565b6040516101fe9190611c4d565b60405180910390f35b610221600480360381019061021c91906117b6565b610749565b005b61023d600480360381019061023891906117b6565b610770565b60405161024a9190611e51565b60405180910390f35b61025b610828565b6040516102689190611e51565b60405180910390f35b61027961082e565b6040516102869190611ccf565b60405180910390f35b6102a960048036038101906102a491906118e5565b6108c0565b005b6102c560048036038101906102c0919061186a565b6108d6565b005b6102e160048036038101906102dc91906119af565b610938565b6040516102ee9190611ccf565b60405180910390f35b610311600480360381019061030c91906117df565b6109a0565b60405161031e9190611cb4565b60405180910390f35b61032f610a34565b60405161033c9190611c4d565b60405180910390f35b60007f80ac58cd000000000000000000000000000000000000000000000000000000007bffffffffffffffffffffffffffffffffffffffffffffffffffffffff1916827bffffffffffffffffffffffffffffffffffffffffffffffffffffffff1916148061041057507f5b5e139f000000000000000000000000000000000000000000000000000000007bffffffffffffffffffffffffffffffffffffffffffffffffffffffff1916827bffffffffffffffffffffffffffffffffffffffffffffffffffffffff1916145b80610420575061041f82610a5a565b5b9050919050565b60606000805461043690612076565b80601f016020809104026020016040519081016040528092919081815260200182805461046290612076565b80156104af5780601f10610484576101008083540402835291602001916104af565b820191906000526020600020905b81548152906001019060200180831161049257829003601f168201915b5050505050905090565b60006104c482610ac4565b6004600083815260200190815260200160002060009054906101000a900473ffffffffffffffffffffffffffffffffffffffff169050919050565b600061050a82610697565b90508073ffffffffffffffffffffffffffffffffffffffff168373ffffffffffffffffffffffffffffffffffffffff16141561057b576040517f08c379a000000000000000000000000000000000000000000000000000000000815260040161057290611e11565b60405180910390fd5b8073ffffffffffffffffffffffffffffffffffffffff1661059a610b0f565b73ffffffffffffffffffffffffffffffffffffffff1614806105c957506105c8816105c3610b0f565b6109a0565b5b610608576040517f08c379a00000000000000000000000000000000000000000000000000000000081526004016105ff90611db1565b60405180910390fd5b6106128383610b17565b505050565b610628610622610b0f565b82610bd0565b610667576040517f08c379a000000000000000000000000000000000000000000000000000000000815260040161065e90611e31565b60405180910390fd5b610672838383610c65565b505050565b610692838383604051806020016040528060008152506108d6565b505050565b6000806002600084815260200190815260200160002060009054906101000a900473ffffffffffffffffffffffffffffffffffffffff169050600073ffffffffffffffffffffffffffffffffffffffff168173ffffffffffffffffffffffffffffffffffffffff161415610740576040517f08c379a000000000000000000000000000000000000000000000000000000000815260040161073790611df1565b60405180910390fd5b80915050919050565b61075581600654610ecc565b60066000815480929190610768906120d9565b919050555050565b60008073ffffffffffffffffffffffffffffffffffffffff168273ffffffffffffffffffffffffffffffffffffffff1614156107e1576040517f08c379a00000000000000000000000000000000000000000000000000000000081526004016107d890611d91565b60405180910390fd5b600360008373ffffffffffffffffffffffffffffffffffffffff1673ffffffffffffffffffffffffffffffffffffffff168152602001908152602001600020549050919050565b60065481565b60606001805461083d90612076565b80601f016020809104026020016040519081016040528092919081815260200182805461086990612076565b80156108b65780601f1061088b576101008083540402835291602001916108b6565b820191906000526020600020905b81548152906001019060200180831161089957829003601f168201915b5050505050905090565b6108d26108cb610b0f565b8383610eea565b5050565b6108e76108e1610b0f565b83610bd0565b610926576040517f08c379a000000000000000000000000000000000000000000000000000000000815260040161091d90611e31565b60405180910390fd5b61093284848484611057565b50505050565b606061094382610ac4565b600061094d6110b3565b9050600081511161096d5760405180602001604052806000815250610998565b80610977846110d3565b604051602001610988929190611c29565b6040516020818303038152906040525b915050919050565b6000600560008473ffffffffffffffffffffffffffffffffffffffff1673ffffffffffffffffffffffffffffffffffffffff16815260200190815260200160002060008373ffffffffffffffffffffffffffffffffffffffff1673ffffffffffffffffffffffffffffffffffffffff16815260200190815260200160002060009054906101000a900460ff16905092915050565b600760009054906101000a900473ffffffffffffffffffffffffffffffffffffffff1681565b60007f01ffc9a7000000000000000000000000000000000000000000000000000000007bffffffffffffffffffffffffffffffffffffffffffffffffffffffff1916827bffffffffffffffffffffffffffffffffffffffffffffffffffffffff1916149050919050565b610acd81611280565b610b0c576040517f08c379a0000000000000000000000000000000000000000000000000000000008152600401610b0390611df1565b60405180910390fd5b50565b600033905090565b816004600083815260200190815260200160002060006101000a81548173ffffffffffffffffffffffffffffffffffffffff021916908373ffffffffffffffffffffffffffffffffffffffff160217905550808273ffffffffffffffffffffffffffffffffffffffff16610b8a83610697565b73ffffffffffffffffffffffffffffffffffffffff167f8c5be1e5ebec7d5bd14f71427d1e84f3dd0314c0f7b2291e5b200ac8c7c3b92560405160405180910390a45050565b600080610bdc83610697565b90508073ffffffffffffffffffffffffffffffffffffffff168473ffffffffffffffffffffffffffffffffffffffff161480610c1e5750610c1d81856109a0565b5b80610c5c57508373ffffffffffffffffffffffffffffffffffffffff16610c44846104b9565b73ffffffffffffffffffffffffffffffffffffffff16145b91505092915050565b8273ffffffffffffffffffffffffffffffffffffffff16610c8582610697565b73ffffffffffffffffffffffffffffffffffffffff1614610cdb576040517f08c379a0000000000000000000000000000000000000000000000000000000008152600401610cd290611d11565b60405180910390fd5b600073ffffffffffffffffffffffffffffffffffffffff168273ffffffffffffffffffffffffffffffffffffffff161415610d4b576040517f08c379a0000000000000000000000000000000000000000000000000000000008152600401610d4290611d51565b60405180910390fd5b610d568383836112ec565b610d61600082610b17565b6001600360008573ffffffffffffffffffffffffffffffffffffffff1673ffffffffffffffffffffffffffffffffffffffff1681526020019081526020016000206000828254610db19190611f8c565b925050819055506001600360008473ffffffffffffffffffffffffffffffffffffffff1673ffffffffffffffffffffffffffffffffffffffff1681526020019081526020016000206000828254610e089190611f05565b92505081905550816002600083815260200190815260200160002060006101000a81548173ffffffffffffffffffffffffffffffffffffffff021916908373ffffffffffffffffffffffffffffffffffffffff160217905550808273ffffffffffffffffffffffffffffffffffffffff168473ffffffffffffffffffffffffffffffffffffffff167fddf252ad1be2c89b69c2b068fc378daa952ba7f163c4a11628f55a4df523b3ef60405160405180910390a4610ec78383836112f1565b505050565b610ee68282604051806020016040528060008152506112f6565b5050565b8173ffffffffffffffffffffffffffffffffffffffff168373ffffffffffffffffffffffffffffffffffffffff161415610f59576040517f08c379a0000000000000000000000000000000000000000000000000000000008152600401610f5090611d71565b60405180910390fd5b80600560008573ffffffffffffffffffffffffffffffffffffffff1673ffffffffffffffffffffffffffffffffffffffff16815260200190815260200160002060008473ffffffffffffffffffffffffffffffffffffffff1673ffffffffffffffffffffffffffffffffffffffff16815260200190815260200160002060006101000a81548160ff0219169083151502179055508173ffffffffffffffffffffffffffffffffffffffff168373ffffffffffffffffffffffffffffffffffffffff167f17307eab39ab6107e8899845ad3d59bd9653f200f220920489ca2b5937696c318360405161104a9190611cb4565b60405180910390a3505050565b611062848484610c65565b61106e84848484611351565b6110ad576040517f08c379a00000000000000000000000000000000000000000000000000000000081526004016110a490611cf1565b60405180910390fd5b50505050565b60606040518060600160405280602c815260200161254a602c9139905090565b6060600082141561111b576040518060400160405280600181526020017f3000000000000000000000000000000000000000000000000000000000000000815250905061127b565b600082905060005b6000821461114d578080611136906120d9565b915050600a826111469190611f5b565b9150611123565b60008167ffffffffffffffff81111561118f577f4e487b7100000000000000000000000000000000000000000000000000000000600052604160045260246000fd5b6040519080825280601f01601f1916602001820160405280156111c15781602001600182028036833780820191505090505b5090505b60008514611274576001826111da9190611f8c565b9150600a856111e99190612122565b60306111f59190611f05565b60f81b818381518110611231577f4e487b7100000000000000000000000000000000000000000000000000000000600052603260045260246000fd5b60200101907effffffffffffffffffffffffffffffffffffffffffffffffffffffffffffff1916908160001a905350600a8561126d9190611f5b565b94506111c5565b8093505050505b919050565b60008073ffffffffffffffffffffffffffffffffffffffff166002600084815260200190815260200160002060009054906101000a900473ffffffffffffffffffffffffffffffffffffffff1673ffffffffffffffffffffffffffffffffffffffff1614159050919050565b505050565b505050565b61130083836114e8565b61130d6000848484611351565b61134c576040517f08c379a000000000000000000000000000000000000000000000000000000000815260040161134390611cf1565b60405180910390fd5b505050565b60006113728473ffffffffffffffffffffffffffffffffffffffff166116c2565b156114db578373ffffffffffffffffffffffffffffffffffffffff1663150b7a0261139b610b0f565b8786866040518563ffffffff1660e01b81526004016113bd9493929190611c68565b602060405180830381600087803b1580156113d757600080fd5b505af192505050801561140857506040513d601f19601f820116820180604052508101906114059190611986565b60015b61148b573d8060008114611438576040519150601f19603f3d011682016040523d82523d6000602084013e61143d565b606091505b50600081511415611483576040517f08c379a000000000000000000000000000000000000000000000000000000000815260040161147a90611cf1565b60405180910390fd5b805181602001fd5b63150b7a0260e01b7bffffffffffffffffffffffffffffffffffffffffffffffffffffffff1916817bffffffffffffffffffffffffffffffffffffffffffffffffffffffff1916149150506114e0565b600190505b949350505050565b600073ffffffffffffffffffffffffffffffffffffffff168273ffffffffffffffffffffffffffffffffffffffff161415611558576040517f08c379a000000000000000000000000000000000000000000000000000000000815260040161154f90611dd1565b60405180910390fd5b61156181611280565b156115a1576040517f08c379a000000000000000000000000000000000000000000000000000000000815260040161159890611d31565b60405180910390fd5b6115ad600083836112ec565b6001600360008473ffffffffffffffffffffffffffffffffffffffff1673ffffffffffffffffffffffffffffffffffffffff16815260200190815260200160002060008282546115fd9190611f05565b92505081905550816002600083815260200190815260200160002060006101000a81548173ffffffffffffffffffffffffffffffffffffffff021916908373ffffffffffffffffffffffffffffffffffffffff160217905550808273ffffffffffffffffffffffffffffffffffffffff16600073ffffffffffffffffffffffffffffffffffffffff167fddf252ad1be2c89b69c2b068fc378daa952ba7f163c4a11628f55a4df523b3ef60405160405180910390a46116be600083836112f1565b5050565b6000808273ffffffffffffffffffffffffffffffffffffffff163b119050919050565b60006116f86116f384611e91565b611e6c565b90508281526020810184848401111561171057600080fd5b61171b848285612034565b509392505050565b600081359050611732816124ed565b92915050565b60008135905061174781612504565b92915050565b60008135905061175c8161251b565b92915050565b6000815190506117718161251b565b92915050565b600082601f83011261178857600080fd5b81356117988482602086016116e5565b91505092915050565b6000813590506117b081612532565b92915050565b6000602082840312156117c857600080fd5b60006117d684828501611723565b91505092915050565b600080604083850312156117f257600080fd5b600061180085828601611723565b925050602061181185828601611723565b9150509250929050565b60008060006060848603121561183057600080fd5b600061183e86828701611723565b935050602061184f86828701611723565b9250506040611860868287016117a1565b9150509250925092565b6000806000806080858703121561188057600080fd5b600061188e87828801611723565b945050602061189f87828801611723565b93505060406118b0878288016117a1565b925050606085013567ffffffffffffffff8111156118cd57600080fd5b6118d987828801611777565b91505092959194509250565b600080604083850312156118f857600080fd5b600061190685828601611723565b925050602061191785828601611738565b9150509250929050565b6000806040838503121561193457600080fd5b600061194285828601611723565b9250506020611953858286016117a1565b9150509250929050565b60006020828403121561196f57600080fd5b600061197d8482850161174d565b91505092915050565b60006020828403121561199857600080fd5b60006119a684828501611762565b91505092915050565b6000602082840312156119c157600080fd5b60006119cf848285016117a1565b91505092915050565b6119e181611fc0565b82525050565b6119f081611fd2565b82525050565b6000611a0182611ec2565b611a0b8185611ed8565b9350611a1b818560208601612043565b611a248161220f565b840191505092915050565b6000611a3a82611ecd565b611a448185611ee9565b9350611a54818560208601612043565b611a5d8161220f565b840191505092915050565b6000611a7382611ecd565b611a7d8185611efa565b9350611a8d818560208601612043565b80840191505092915050565b6000611aa6603283611ee9565b9150611ab182612220565b604082019050919050565b6000611ac9602583611ee9565b9150611ad48261226f565b604082019050919050565b6000611aec601c83611ee9565b9150611af7826122be565b602082019050919050565b6000611b0f602483611ee9565b9150611b1a826122e7565b604082019050919050565b6000611b32601983611ee9565b9150611b3d82612336565b602082019050919050565b6000611b55602983611ee9565b9150611b608261235f565b604082019050919050565b6000611b78603e83611ee9565b9150611b83826123ae565b604082019050919050565b6000611b9b602083611ee9565b9150611ba6826123fd565b602082019050919050565b6000611bbe601883611ee9565b9150611bc982612426565b602082019050919050565b6000611be1602183611ee9565b9150611bec8261244f565b604082019050919050565b6000611c04602e83611ee9565b9150611c0f8261249e565b604082019050919050565b611c238161202a565b82525050565b6000611c358285611a68565b9150611c418284611a68565b91508190509392505050565b6000602082019050611c6260008301846119d8565b92915050565b6000608082019050611c7d60008301876119d8565b611c8a60208301866119d8565b611c976040830185611c1a565b8181036060830152611ca981846119f6565b905095945050505050565b6000602082019050611cc960008301846119e7565b92915050565b60006020820190508181036000830152611ce98184611a2f565b905092915050565b60006020820190508181036000830152611d0a81611a99565b9050919050565b60006020820190508181036000830152611d2a81611abc565b9050919050565b60006020820190508181036000830152611d4a81611adf565b9050919050565b60006020820190508181036000830152611d6a81611b02565b9050919050565b60006020820190508181036000830152611d8a81611b25565b9050919050565b60006020820190508181036000830152611daa81611b48565b9050919050565b60006020820190508181036000830152611dca81611b6b565b9050919050565b60006020820190508181036000830152611dea81611b8e565b9050919050565b60006020820190508181036000830152611e0a81611bb1565b9050919050565b60006020820190508181036000830152611e2a81611bd4565b9050919050565b60006020820190508181036000830152611e4a81611bf7565b9050919050565b6000602082019050611e666000830184611c1a565b92915050565b6000611e76611e87565b9050611e8282826120a8565b919050565b6000604051905090565b600067ffffffffffffffff821115611eac57611eab6121e0565b5b611eb58261220f565b9050602081019050919050565b600081519050919050565b600081519050919050565b600082825260208201905092915050565b600082825260208201905092915050565b600081905092915050565b6000611f108261202a565b9150611f1b8361202a565b9250827fffffffffffffffffffffffffffffffffffffffffffffffffffffffffffffffff03821115611f5057611f4f612153565b5b828201905092915050565b6000611f668261202a565b9150611f718361202a565b925082611f8157611f80612182565b5b828204905092915050565b6000611f978261202a565b9150611fa28361202a565b925082821015611fb557611fb4612153565b5b828203905092915050565b6000611fcb8261200a565b9050919050565b60008115159050919050565b60007fffffffff0000000000000000000000000000000000000000000000000000000082169050919050565b600073ffffffffffffffffffffffffffffffffffffffff82169050919050565b6000819050919050565b82818337600083830152505050565b60005b83811015612061578082015181840152602081019050612046565b83811115612070576000848401525b50505050565b6000600282049050600182168061208e57607f821691505b602082108114156120a2576120a16121b1565b5b50919050565b6120b18261220f565b810181811067ffffffffffffffff821117156120d0576120cf6121e0565b5b80604052505050565b60006120e48261202a565b91507fffffffffffffffffffffffffffffffffffffffffffffffffffffffffffffffff82141561211757612116612153565b5b600182019050919050565b600061212d8261202a565b91506121388361202a565b92508261214857612147612182565b5b828206905092915050565b7f4e487b7100000000000000000000000000000000000000000000000000000000600052601160045260246000fd5b7f4e487b7100000000000000000000000000000000000000000000000000000000600052601260045260246000fd5b7f4e487b7100000000000000000000000000000000000000000000000000000000600052602260045260246000fd5b7f4e487b7100000000000000000000000000000000000000000000000000000000600052604160045260246000fd5b6000601f19601f8301169050919050565b7f4552433732313a207472616e7366657220746f206e6f6e20455243373231526560008201527f63656976657220696d706c656d656e7465720000000000000000000000000000602082015250565b7f4552433732313a207472616e736665722066726f6d20696e636f72726563742060008201527f6f776e6572000000000000000000000000000000000000000000000000000000602082015250565b7f4552433732313a20746f6b656e20616c7265616479206d696e74656400000000600082015250565b7f4552433732313a207472616e7366657220746f20746865207a65726f2061646460008201527f7265737300000000000000000000000000000000000000000000000000000000602082015250565b7f4552433732313a20617070726f766520746f2063616c6c657200000000000000600082015250565b7f4552433732313a2061646472657373207a65726f206973206e6f74206120766160008201527f6c6964206f776e65720000000000000000000000000000000000000000000000602082015250565b7f4552433732313a20617070726f76652063616c6c6572206973206e6f7420746f60008201527f6b656e206f776e6572206e6f7220617070726f76656420666f7220616c6c0000602082015250565b7f4552433732313a206d696e7420746f20746865207a65726f2061646472657373600082015250565b7f4552433732313a20696e76616c696420746f6b656e2049440000000000000000600082015250565b7f4552433732313a20617070726f76616c20746f2063757272656e74206f776e6560008201527f7200000000000000000000000000000000000000000000000000000000000000602082015250565b7f4552433732313a2063616c6c6572206973206e6f7420746f6b656e206f776e6560008201527f72206e6f7220617070726f766564000000000000000000000000000000000000602082015250565b6124f681611fc0565b811461250157600080fd5b50565b61250d81611fd2565b811461251857600080fd5b50565b61252481611fde565b811461252f57600080fd5b50565b61253b8161202a565b811461254657600080fd5b5056fe68747470733a2f2f7472616e7175696c2d726176696e652d33363335392e6865726f6b756170702e636f6d2fa2646970667358221220cd9ab5ef78deb7300f2fc72cbca46c6ac196b1d1af8e9c586e938acc0ac6691164736f6c63430008040033",
  "immutableReferences": {},
  "source": "// contracts/NFT.sol\r\n// SPDX-License-Identifier: MIT\r\n\r\npragma solidity ^0.8.0;\r\n\r\nimport '@openzeppelin/contracts/token/ERC721/ERC721.sol';\r\n\r\ncontract NFT is ERC721 {\r\n    uint public nextTokenId;\r\n    address public admin;\r\n\r\n    constructor() ERC721('My NFT)', 'NFT') {\r\n        admin = msg.sender;\r\n    }\r\n\r\n    function mint (address to) external {\r\n        //require(msg.sender == admin, 'only admin');\r\n        _safeMint(to, nextTokenId);\r\n        nextTokenId++;\r\n    }\r\n\r\n    function _baseURI() internal view virtual override returns (string memory) {\r\n        return 'https://tranquil-ravine-36359.herokuapp.com/';\r\n    }\r\n}",
  "sourcePath": "C:\\Users\\alexb\\OneDrive - Bertschi Consulting\\04 - Technical Files\\01 - React Apps\\my-first-react-app\\contracts\\NFT.sol",
  "compiler": {
    "name": "solc",
    "version": "0.8.4+commit.c7e474f2.Emscripten.clang"
  },
  "schemaVersion": "3.4.9",
  "updatedAt": "2022-08-29T16:47:36.795Z",
  "networkType": "ethereum",
  "devdoc": {
    "kind": "dev",
    "methods": {
      "approve(address,uint256)": {
        "details": "See {IERC721-approve}."
      },
      "balanceOf(address)": {
        "details": "See {IERC721-balanceOf}."
      },
      "getApproved(uint256)": {
        "details": "See {IERC721-getApproved}."
      },
      "isApprovedForAll(address,address)": {
        "details": "See {IERC721-isApprovedForAll}."
      },
      "name()": {
        "details": "See {IERC721Metadata-name}."
      },
      "ownerOf(uint256)": {
        "details": "See {IERC721-ownerOf}."
      },
      "safeTransferFrom(address,address,uint256)": {
        "details": "See {IERC721-safeTransferFrom}."
      },
      "safeTransferFrom(address,address,uint256,bytes)": {
        "details": "See {IERC721-safeTransferFrom}."
      },
      "setApprovalForAll(address,bool)": {
        "details": "See {IERC721-setApprovalForAll}."
      },
      "supportsInterface(bytes4)": {
        "details": "See {IERC165-supportsInterface}."
      },
      "symbol()": {
        "details": "See {IERC721Metadata-symbol}."
      },
      "tokenURI(uint256)": {
        "details": "See {IERC721Metadata-tokenURI}."
      },
      "transferFrom(address,address,uint256)": {
        "details": "See {IERC721-transferFrom}."
      }
    },
    "version": 1
  },
  "userdoc": {
    "kind": "user",
    "methods": {},
    "version": 1
  }
}